:020000005C287A
:10000600831603139818092800000328831226086C
:040016009900080045
:0E001A008312031321088A00200882000800C8
:0E0028000030831203138C1A0130F000080020
:10003600831203131A08F100981C232818121816A5
:060046007108F000080043
:10004C008316031398169030831298008316871723
:10005C00071383128C1E35281A08F0002F2808006D
:10006C0083120313A5010F30250203184F2825080E
:10007C002307F00024080318013EF1007008A000CB
:10008C007108A1000D208A110A12A6000320A50AEE
:04009C0039280800F7
:1000A0000D208A110A128000840AA00A0319A10AED
:0800B000F003031D50280800B5
:1000B8008316031318120317880189018312871303
:1000C8008813FF30831603138700831287013330A8
:1000D80083169900181526200230FB000430FC0016
:1000E800BA30FD00FD0B7628FC0B7628FB0B762832
:1000F800000083168C160B178B1714201B2020303A
:10010800A3000130A40036200A30A60003200D30D9
:10011800A60003203230A3000130A40036200A30A4
:10012800A60003200D30A60003204430A3000130B0
:10013800A40036200A30A60003200D30A6000320B4
:1001480014207008003A031DAA28A4281B20700850
:10015800A200CA2807140E30A3000130A4003620DC
:10016800D6280710D830A3000030A4003620D6289F
:10017800051CC428EA30A3000030A4003620C92892
:10018800FC30A3000030A4003620D6282208613AAB
:100198000319AE282208623A0319B5282208633ADF
:0801A8000319BC288128D728A7
:1001B0006C34653464342034313420343D3420349C
:1001C0006F346634663420342034203420340A34CA
:0401D0000C340034B7
:1001D4005334773469347234633468342034633488
:1001E400653472347234613464346F3420340A34C4
:0401F4000C34003493
:1001F8007334773469347434633468342034613444
:10020800623469346534723474346F3420340A3497
:040218000C3400346E
:10021C006C34653464342034313420343D3420342F
:10022C006F346E34203420342034203420340A349B
:04023C000C3400344A
:100240004C34453444342034313420346F346E34EB
:1002500020343D34203461342034203420340A34B6
:040260000C34003426
:100264004C34453444342034313420346F346634CF
:10027400663420343D3420346234203420340A344B
:040284000C34003402
:1002880073347734313420343D3420347434653455
:1002980063346C34613420346334203420340A34B9
:0402A8000C340034DE
:04400E00F22F000786
:00000001FF
